:08000000803102288731FD2F39
:100F360018302100970008006A30210099009801B6
:100F46002200960108008731B027873187319F2715
:100F5600873187319B278731080022008C010830B2
:100F660021008C0023008C0124008C0121009517A0
:100F760022009D0108008731A627873122000C1523
:100F86000B30F1002630F0005E30890BC82FF00BD5
:100F9600C82FF10BC82F22000C110630F1001330B8
:100FA600F000AE30890BD52FF00BD52FF10BD52FD6
:100FB60022000C150630F1001330F000AE30890B1C
:100FC600E22FF00BE22FF10BE22F22000C1106307C
:100FD600F1001330F000AE30890BEF2FF00BEF2F3E
:100FE600F10BEF2F21001714630021001710DB2FE0
:0A0FF6008031022820008731BE2F51
:020000040001F9
:08000000FF3FFF3FFF3FFF3F00
:04000E00EC3FFF3E86
:00000001FF
