:08000000803102288731FD2F39
:100F2E0018302100970008006A30210099009801BE
:100F3E002200960108008731AC27873187319B2725
:100F4E008731873197278731080022008C010830BE
:100F5E0021008C0023008C0124008C0121009517A8
:100F6E0022009D0108008731A227873122000C1034
:100F7E008C100C128C120C150B30F1002630F00078
:100F8E005E30890BC82FF00BC82FF10BC82F220033
:100F9E000C110630F1001330F000AE30890BD52F56
:100FAE00F00BD52FF10BD52F22000C150630F100CA
:100FBE001330F000AE30890BE22FF00BE22FF10B65
:100FCE00E22F22000C110630F1001330F000AE308B
:100FDE00890BEF2FF00BEF2FF10BEF2F21001714D2
:100FEE00630021001710DB2F80310228200087318B
:020FFE00BA2F08
:020000040001F9
:08000000FF3FFF3FFF3FFF3F00
:04000E00EC1DFF3EA8
:00000001FF
